:100000000C9446000C9465000C9465000C946500FB
:100010000C9465000C9465000C9465000C946500CC
:100020000C9465000C9465000C9465000C946500BC
:100030000C9465000C9465000C9465000C946500AC
:100040000C9465000C9465000C9465000C9465009C
:100050000C9465000C9465000C9465000C9465008C
:100060000C9465000C9465000C9465000C9465007C
:100070000C9465000C9465000C9465000C9465006C
:100080000C9465000C9465000C94650011241FBE4F
:10009000CFEFD0E4DEBFCDBF11E0A0E0B1E0E4E3FC
:1000A000F6E000E00BBF02C007900D92AE32B10740
:1000B000D9F711E0AEE2B1E001C01D92A433B1075F
:1000C000E1F70E9481010C9418030C940000CF9377
:1000D000C82F8A3019F48DE00E9467009091C0000B
:1000E00095FFFCCFC093C60080E090E0CF910895CB
:1000F000CF92DF92EF92FF926B017C012091300151
:100100003091310140913201509133010E949F01A1
:10011000882309F457C020E030E0A901C701B601E7
:100120000E949F01811106C0E1E8F0E080818870A3
:10013000808305C0E1E8F0E080818360808328E56A
:1001400039E344E75FE3C701B6010E949F018823BA
:1001500034F48FEF9FEF909399008093980020E004
:1001600034E244EF56E4C701B6010E94B10218160A
:100170002CF4109299001092980018C020E030E002
:1001800040E053E4C701B6010E94B5029B01AC01F7
:1001900060E074E284EF9AE40E94A3010E940B02E3
:1001A00061507109709399006093980010929500C6
:1001B00010929400C0923001D0923101E09232014D
:1001C000F0923301FF90EF90DF90CF90089580E49C
:1001D000809390008BE08093910060E070E0CB0111
:1001E0000E94780008951092900010929100089556
:1001F00020B1209521708130910569F08230910500
:1002000029F0009751F4822F90E007C0211105C01A
:1002100080E090E002C082E090E0009721F0813021
:10022000910519F0089515B8089520912F01209592
:1002300020932F010895CF93DF93EC0120B130E09C
:100240002095309535952795822F817020B130E02B
:100250002095309535952795359527952170C43093
:10026000D105B9F034F4209759F0C330D105F1F03D
:100270001FC0C530D10581F0C630D10591F018C03E
:10028000882311F0C3E0D0E0222391F0C4E0D0E055
:100290000FC0C6E0D0E00CC081110AC0C0E0D0E0C1
:1002A00007C0211105C0C0E0D0E002C0C5E0D0E029
:1002B000C330D10521F0C430D10549F00FC0809181
:1002C0002E01873058F48F5F80932E0107C08091F4
:1002D0002E01882319F0815080932E01E0912E0188
:1002E000F0E0EE0FFF1FEE0FFF1FE050FF4F6081A9
:1002F0007181828193810E947800CE01DF91CF913C
:10030000089511B88FEF80B984B913B80E94E7003F
:1003100000E010E0C0E0D0E0CE010E94F800EC0167
:1003200090912F01992329F0C8010E941B018C0193
:10033000F3CF60E070E0CB010E947800EDCF9CD05D
:1003400008F481E008950CD0D2C0CAD040F0C1D0EA
:1003500030F021F45F3F19F0B3C05111FCC0B6C0BA
:10036000D7D098F39923C9F35523B1F3951B550BB7
:10037000BB27AA2762177307840738F09F5F5F4F78
:10038000220F331F441FAA1FA9F333D00E2E3AF0B9
:10039000E0E830D091505040E695001CCAF729D0D3
:1003A000FE2F27D0660F771F881FBB1F2617370722
:1003B0004807AB07B0E809F0BB0B802DBF01FF2752
:1003C00093585F4F2AF09E3F510568F079C0C3C033
:1003D0005F3FECF3983EDCF3869577956795B7958C
:1003E000F7959F5FC9F7880F911D9695879597F9A7
:1003F0000895E1E0660F771F881FBB1F6217730720
:100400008407BA0720F0621B730B840BBA0BEE1F34
:1004100088F7E095089504D06894B1119CC00895C0
:100420007FD088F09F5790F0B92F9927B751A0F04F
:10043000D1F0660F771F881F991F1AF0BA95C9F778
:1004400012C0B13081F086D0B1E0089583C0672F2B
:10045000782F8827B85F39F0B93FCCF38695779528
:100460006795B395D9F73EF4909580957095619511
:100470007F4F8F4F9F4F0895990F0008550FAA0B7C
:10048000E0E8FEEF16161706E807F907C0F01216A7
:100490001306E407F50798F0621B730B840B950BAA
:1004A00039F40A2661F0232B242B252B21F40895FF
:1004B0000A2609F4A140A6958FEF811D811D08959C
:1004C00097F99F6780E870E060E008959FEF80EC07
:1004D000089500240A9416161706180609060895AA
:1004E00000240A9412161306140605060895092E10
:1004F0000394000C11F4882352F0BB0F40F4BF2B7F
:1005000011F460FF04C06F5F7F4F8F4F9F4F0895BE
:1005100057FD9058440F551F59F05F3F71F04795B4
:10052000880F97FB991F61F09F3F79F08795089599
:10053000121613061406551FF2CF4695F1DF08C0B8
:10054000161617061806991FF1CF869571056105D5
:1005500008940895E894BB2766277727CB0197F97D
:1005600008958ADF08F48FEF08950BD0C0CFB1DF74
:1005700028F0B6DF18F0952309F0A2CFA7CF1124F9
:10058000EACFC6DFA0F3959FD1F3950F50E0551F3A
:10059000629FF001729FBB27F00DB11D639FAA27D8
:1005A000F00DB11DAA1F649F6627B00DA11D661F27
:1005B000829F2227B00DA11D621F739FB00DA11D48
:1005C000621F839FA00D611D221F749F3327A00D02
:1005D000611D231F849F600D211D822F762F6A2F9E
:1005E00011249F5750408AF0E1F088234AF0EE0F23
:1005F000FF1FBB1F661F771F881F91505040A9F730
:100600009E3F510570F05CCFA6CF5F3FECF3983E64
:10061000DCF3869577956795B795F795E7959F5F96
:10062000C1F7FE2B880F911D9695879597F9089530
:04063000F894FFCF6C
:10063400A4D082437BD49243A4D0A443719DAE43FF
:100644000000C4430000DC43A4F0F64300D002449D
:0E06540000000002000000006700000000002F
:00000001FF
